{
  "contractName": "HelloWorldContract",
  "abi": [
    {
      "constant": true,
      "inputs": [],
      "name": "helloWorld",
      "outputs": [
        {
          "internalType": "string",
          "name": "",
          "type": "string"
        }
      ],
      "payable": false,
      "stateMutability": "pure",
      "type": "function"
    }
  ],
  "bytecode": "0x608060405234801561001057600080fd5b5061011d806100206000396000f3fe6080604052348015600f57600080fd5b506004361060285760003560e01c8063c605f76c14602d575b600080fd5b603360ab565b6040518080602001828103825283818151815260200191508051906020019080838360005b8381101560715780820151818401526020810190506058565b50505050905090810190601f168015609d5780820380516001836020036101000a031916815260200191505b509250505060405180910390f35b60606040518060400160405280600d81526020017f48656c6c6f2c20576f726c64210000000000000000000000000000000000000081525090509056fea265627a7a723158202b3a73f2c378a18a4094d03ab0cd0b84df547969266c4ef56e2ebf62fc35fb5964736f6c63430005100032",
  "source": "// SPDX-License-Identifier: MIT\npragma solidity >=0.4.22 <0.9.0; // andiamo a definire per quali versione del compilatore è possibile compilare il seguente contratto\n\n// il contratto \ncontract HelloWorldContract {\n    // una fuzione pubblica che ritorna un valore di tipo stringa\n    function helloWorld() public pure returns (string memory) {\n        return \"Hello, World!\";\n    }\n}",
  "sourcePath": "/home/paranoiasystem/smart_contract_series/01_dummy_contract/contracts/HelloWord.sol",
  "compiler": {
    "name": "solc",
    "version": "0.5.16+commit.9c3226ce.Emscripten.clang"
  },
  "schemaVersion": "3.3.4",
  "updatedAt": "2021-04-21T18:22:31.824Z",
  "networkType": "ethereum",
  "devdoc": {
    "methods": {}
  },
  "userdoc": {
    "methods": {}
  }
}